:100000000C9446000C9465000C9465000C946500FB
:100010000C9465000C9465000C9465000C946500CC
:100020000C9465000C9465000C9465000C946500BC
:100030000C9465000C9465000C9465000C946500AC
:100040000C9465000C9465000C9465000C9465009C
:100050000C9465000C9465000C9465000C9465008C
:100060000C9465000C9465000C9465000C9465007C
:100070000C9465000C9465000C9465000C9465006C
:100080000C9465000C9465000C94650011241FBE4F
:10009000CFEFD0E4DEBFCDBF11E0A0E0B1E0E8EAF1
:1000A000F1E000E00BBF02C007900D92A431B10750
:1000B000D9F721E0A4E1B1E001C01D92A831B20757
:1000C000E1F70E94C6000C94D2000C940000CF937C
:1000D000C82F8A3019F48DE00E9467008091C0001B
:1000E00085FFFCCFC093C60080E090E0CF910895DB
:1000F00080911501909116018130910589F020F0D1
:100100008230910589F13DC0109217018091000164
:1001100085B981E090E090931601809315010895D0
:1001200090B181E089278170809314018823A9F020
:1001300082E090E09093160180931501E091170101
:10014000E53010F4EF5F01C0E0E0E0931701F0E06C
:10015000E050FF4F808185B9089581E090E0909351
:10016000160180931501089520B120952093140164
:10017000211102C081E090E0909316018093150157
:1001800008951092160110921501089511B88FEF7D
:1001900082B984B915B810921601109215010E9407
:0801A0007800FDCFF894FFCFB9
:1001A80000152A38073F0000000200000000670021
:0401B8000000000043
:00000001FF
