:100000000C9446000C9465000C9465000C946500FB
:100010000C9465000C9465000C9465000C946500CC
:100020000C9465000C9465000C9465000C946500BC
:100030000C9465000C9465000C9465000C946500AC
:100040000C9465000C9465000C9465000C9465009C
:100050000C9465000C9465000C9465000C9465008C
:100060000C9465000C9465000C9465000C9465007C
:100070000C9465000C9465000C9465000C9465006C
:100080000C9465000C9465000C94650011241FBE4F
:10009000CFEFD0E4DEBFCDBF11E0A0E0B1E0EEE0F5
:1000A000F2E000E00BBF02C007900D92AE30B10746
:1000B000D9F721E0AEE0B1E001C01D92A231B20754
:1000C000E1F70E94F7000C9405010C940000CF9317
:1000D000C82F8A3019F48DE00E9467008091C0001B
:1000E00085FFFCCFC093C60080E090E0CF910895DB
:1000F00080910F01909110018130910579F020F0ED
:10010000029709F44AC06EC08091110188B981E05C
:1001100090E09093100180930F01089580B1809535
:10012000982F937090930E01282F217080FF0DC09F
:10013000892F827051F082E090E0909310018093BB
:100140000F011092110118B80895222379F082E06E
:1001500090E09093100180930F01809111018930FC
:1001600008F48F5F8093110188B90895927071F03F
:1001700082E090E09093100180930F018091110133
:10018000811181508093110188B9089581E090E038
:100190009093100180930F01089580B18095982F5E
:1001A000937090930E0180FF0DC0892F827051F0E3
:1001B00082E090E09093100180930F011092110162
:1001C00018B80895911107C081E090E09093100154
:1001D00080930F01089582E090E090931001809346
:1001E0000F0108951092100110920F01089511B897
:1001F0008FEF82B987B918B81092100110920F01D1
:0E020000109211010E947800FDCFF894FFCFFC
:0E020E00000000020000000067000000000079
:00000001FF
