:100000000C9446000C945D000C945D000C945D0013
:100010000C945D000C945D000C945D000C945D00EC
:100020000C945D000C945D000C945D000C945D00DC
:100030000C945D000C945D000C945D000C945D00CC
:100040000C945D000C945D000C945D000C945D00BC
:100050000C945D000C945D000C945D000C945D00AC
:100060000C945D000C945D000C945D000C945D009C
:100070000C945D000C945D000C945D000C945D008C
:100080000C945D000C945D000C945D0011241FBE67
:10009000CFEFD0E4DEBFCDBF11E0A0E0B1E0E4E3FC
:1000A000F1E000E00BBF02C007900D92AE30B10747
:1000B000D9F70E9470000C9498000C940000CF9324
:1000C000C82F8A3019F48DE00E945F008091C00033
:1000D00085FFFCCFC093C60080E090E0CF910895EB
:1000E00011B88FEF82B987B918B880B18095853083
:1000F00010F490E401C090E08D3060F48A3060F438
:10010000873060F4853060F4833060F4882361F0D8
:1001100080E20BC08FE309C08EE307C08CE305C00B
:1001200088E303C080E301C080E0892B88B9DDCF7C
:04013000F894FFCF71
:0E01340000000002000000005F00000000005C
:00000001FF
